{
  "_format": "hh3-artifact-1",
  "contractName": "TipUp",
  "sourceName": "contracts/TipUp.sol",
  "abi": [
    {
      "anonymous": false,
      "inputs": [
        {
          "indexed": true,
          "internalType": "string",
          "name": "ensName",
          "type": "string"
        },
        {
          "indexed": false,
          "internalType": "string",
          "name": "displayName",
          "type": "string"
        }
      ],
      "name": "CreatorProfileUpdated",
      "type": "event"
    },
    {
      "anonymous": false,
      "inputs": [
        {
          "indexed": true,
          "internalType": "string",
          "name": "ensName",
          "type": "string"
        },
        {
          "indexed": true,
          "internalType": "address",
          "name": "wallet",
          "type": "address"
        },
        {
          "indexed": false,
          "internalType": "string",
          "name": "displayName",
          "type": "string"
        }
      ],
      "name": "CreatorRegistered",
      "type": "event"
    },
    {
      "anonymous": false,
      "inputs": [
        {
          "indexed": true,
          "internalType": "string",
          "name": "ensName",
          "type": "string"
        },
        {
          "indexed": true,
          "internalType": "address",
          "name": "from",
          "type": "address"
        },
        {
          "indexed": true,
          "internalType": "address",
          "name": "to",
          "type": "address"
        },
        {
          "indexed": false,
          "internalType": "uint256",
          "name": "amount",
          "type": "uint256"
        },
        {
          "indexed": false,
          "internalType": "string",
          "name": "message",
          "type": "string"
        },
        {
          "indexed": false,
          "internalType": "uint256",
          "name": "timestamp",
          "type": "uint256"
        }
      ],
      "name": "TipSent",
      "type": "event"
    },
    {
      "inputs": [
        {
          "internalType": "address",
          "name": "",
          "type": "address"
        }
      ],
      "name": "addressToEns",
      "outputs": [
        {
          "internalType": "string",
          "name": "",
          "type": "string"
        }
      ],
      "stateMutability": "view",
      "type": "function"
    },
    {
      "inputs": [
        {
          "internalType": "string",
          "name": "",
          "type": "string"
        }
      ],
      "name": "creators",
      "outputs": [
        {
          "internalType": "address",
          "name": "wallet",
          "type": "address"
        },
        {
          "internalType": "string",
          "name": "ensName",
          "type": "string"
        },
        {
          "internalType": "uint256",
          "name": "totalTips",
          "type": "uint256"
        },
        {
          "internalType": "uint256",
          "name": "tipCount",
          "type": "uint256"
        },
        {
          "internalType": "bool",
          "name": "isRegistered",
          "type": "bool"
        },
        {
          "internalType": "string",
          "name": "displayName",
          "type": "string"
        },
        {
          "internalType": "string",
          "name": "profileMessage",
          "type": "string"
        },
        {
          "internalType": "string",
          "name": "avatarUrl",
          "type": "string"
        },
        {
          "internalType": "string",
          "name": "websiteUrl",
          "type": "string"
        },
        {
          "internalType": "string",
          "name": "twitterHandle",
          "type": "string"
        },
        {
          "internalType": "string",
          "name": "instagramHandle",
          "type": "string"
        },
        {
          "internalType": "string",
          "name": "youtubeHandle",
          "type": "string"
        },
        {
          "internalType": "string",
          "name": "discordHandle",
          "type": "string"
        },
        {
          "internalType": "uint256",
          "name": "registrationTime",
          "type": "uint256"
        }
      ],
      "stateMutability": "view",
      "type": "function"
    },
    {
      "inputs": [],
      "name": "getContractStats",
      "outputs": [
        {
          "internalType": "uint256",
          "name": "",
          "type": "uint256"
        },
        {
          "internalType": "uint256",
          "name": "",
          "type": "uint256"
        },
        {
          "internalType": "uint256",
          "name": "",
          "type": "uint256"
        }
      ],
      "stateMutability": "view",
      "type": "function"
    },
    {
      "inputs": [
        {
          "internalType": "string",
          "name": "_ensName",
          "type": "string"
        }
      ],
      "name": "getCreator",
      "outputs": [
        {
          "components": [
            {
              "internalType": "address",
              "name": "wallet",
              "type": "address"
            },
            {
              "internalType": "string",
              "name": "ensName",
              "type": "string"
            },
            {
              "internalType": "uint256",
              "name": "totalTips",
              "type": "uint256"
            },
            {
              "internalType": "uint256",
              "name": "tipCount",
              "type": "uint256"
            },
            {
              "internalType": "bool",
              "name": "isRegistered",
              "type": "bool"
            },
            {
              "internalType": "string",
              "name": "displayName",
              "type": "string"
            },
            {
              "internalType": "string",
              "name": "profileMessage",
              "type": "string"
            },
            {
              "internalType": "string",
              "name": "avatarUrl",
              "type": "string"
            },
            {
              "internalType": "string",
              "name": "websiteUrl",
              "type": "string"
            },
            {
              "internalType": "string",
              "name": "twitterHandle",
              "type": "string"
            },
            {
              "internalType": "string",
              "name": "instagramHandle",
              "type": "string"
            },
            {
              "internalType": "string",
              "name": "youtubeHandle",
              "type": "string"
            },
            {
              "internalType": "string",
              "name": "discordHandle",
              "type": "string"
            },
            {
              "internalType": "uint256",
              "name": "registrationTime",
              "type": "uint256"
            }
          ],
          "internalType": "struct TipUp.Creator",
          "name": "",
          "type": "tuple"
        }
      ],
      "stateMutability": "view",
      "type": "function"
    },
    {
      "inputs": [
        {
          "internalType": "address",
          "name": "_address",
          "type": "address"
        }
      ],
      "name": "getCreatorByAddress",
      "outputs": [
        {
          "components": [
            {
              "internalType": "address",
              "name": "wallet",
              "type": "address"
            },
            {
              "internalType": "string",
              "name": "ensName",
              "type": "string"
            },
            {
              "internalType": "uint256",
              "name": "totalTips",
              "type": "uint256"
            },
            {
              "internalType": "uint256",
              "name": "tipCount",
              "type": "uint256"
            },
            {
              "internalType": "bool",
              "name": "isRegistered",
              "type": "bool"
            },
            {
              "internalType": "string",
              "name": "displayName",
              "type": "string"
            },
            {
              "internalType": "string",
              "name": "profileMessage",
              "type": "string"
            },
            {
              "internalType": "string",
              "name": "avatarUrl",
              "type": "string"
            },
            {
              "internalType": "string",
              "name": "websiteUrl",
              "type": "string"
            },
            {
              "internalType": "string",
              "name": "twitterHandle",
              "type": "string"
            },
            {
              "internalType": "string",
              "name": "instagramHandle",
              "type": "string"
            },
            {
              "internalType": "string",
              "name": "youtubeHandle",
              "type": "string"
            },
            {
              "internalType": "string",
              "name": "discordHandle",
              "type": "string"
            },
            {
              "internalType": "uint256",
              "name": "registrationTime",
              "type": "uint256"
            }
          ],
          "internalType": "struct TipUp.Creator",
          "name": "",
          "type": "tuple"
        }
      ],
      "stateMutability": "view",
      "type": "function"
    },
    {
      "inputs": [
        {
          "internalType": "address",
          "name": "_user",
          "type": "address"
        }
      ],
      "name": "getTipCount",
      "outputs": [
        {
          "internalType": "uint256",
          "name": "",
          "type": "uint256"
        }
      ],
      "stateMutability": "view",
      "type": "function"
    },
    {
      "inputs": [
        {
          "internalType": "address",
          "name": "_user",
          "type": "address"
        }
      ],
      "name": "getUserTips",
      "outputs": [
        {
          "components": [
            {
              "internalType": "address",
              "name": "from",
              "type": "address"
            },
            {
              "internalType": "address",
              "name": "to",
              "type": "address"
            },
            {
              "internalType": "uint256",
              "name": "amount",
              "type": "uint256"
            },
            {
              "internalType": "string",
              "name": "message",
              "type": "string"
            },
            {
              "internalType": "uint256",
              "name": "timestamp",
              "type": "uint256"
            }
          ],
          "internalType": "struct TipUp.Tip[]",
          "name": "",
          "type": "tuple[]"
        }
      ],
      "stateMutability": "view",
      "type": "function"
    },
    {
      "inputs": [
        {
          "internalType": "string",
          "name": "_ensName",
          "type": "string"
        }
      ],
      "name": "isCreatorRegistered",
      "outputs": [
        {
          "internalType": "bool",
          "name": "",
          "type": "bool"
        }
      ],
      "stateMutability": "view",
      "type": "function"
    },
    {
      "inputs": [
        {
          "internalType": "address",
          "name": "_address",
          "type": "address"
        }
      ],
      "name": "isCreatorRegisteredByAddress",
      "outputs": [
        {
          "internalType": "bool",
          "name": "",
          "type": "bool"
        }
      ],
      "stateMutability": "view",
      "type": "function"
    },
    {
      "inputs": [
        {
          "internalType": "string",
          "name": "_ensName",
          "type": "string"
        },
        {
          "internalType": "string",
          "name": "_displayName",
          "type": "string"
        },
        {
          "internalType": "string",
          "name": "_profileMessage",
          "type": "string"
        },
        {
          "internalType": "string",
          "name": "_avatarUrl",
          "type": "string"
        },
        {
          "internalType": "string",
          "name": "_websiteUrl",
          "type": "string"
        },
        {
          "internalType": "string",
          "name": "_twitterHandle",
          "type": "string"
        },
        {
          "internalType": "string",
          "name": "_instagramHandle",
          "type": "string"
        },
        {
          "internalType": "string",
          "name": "_youtubeHandle",
          "type": "string"
        },
        {
          "internalType": "string",
          "name": "_discordHandle",
          "type": "string"
        }
      ],
      "name": "registerCreator",
      "outputs": [],
      "stateMutability": "nonpayable",
      "type": "function"
    },
    {
      "inputs": [
        {
          "internalType": "string",
          "name": "_ensName",
          "type": "string"
        },
        {
          "internalType": "string",
          "name": "_message",
          "type": "string"
        }
      ],
      "name": "tip",
      "outputs": [],
      "stateMutability": "payable",
      "type": "function"
    },
    {
      "inputs": [
        {
          "internalType": "address",
          "name": "_creatorAddress",
          "type": "address"
        },
        {
          "internalType": "string",
          "name": "_message",
          "type": "string"
        }
      ],
      "name": "tipByAddress",
      "outputs": [],
      "stateMutability": "payable",
      "type": "function"
    },
    {
      "inputs": [],
      "name": "totalCreators",
      "outputs": [
        {
          "internalType": "uint256",
          "name": "",
          "type": "uint256"
        }
      ],
      "stateMutability": "view",
      "type": "function"
    },
    {
      "inputs": [],
      "name": "totalTipsSent",
      "outputs": [
        {
          "internalType": "uint256",
          "name": "",
          "type": "uint256"
        }
      ],
      "stateMutability": "view",
      "type": "function"
    },
    {
      "inputs": [
        {
          "internalType": "string",
          "name": "_displayName",
          "type": "string"
        },
        {
          "internalType": "string",
          "name": "_profileMessage",
          "type": "string"
        },
        {
          "internalType": "string",
          "name": "_avatarUrl",
          "type": "string"
        },
        {
          "internalType": "string",
          "name": "_websiteUrl",
          "type": "string"
        },
        {
          "internalType": "string",
          "name": "_twitterHandle",
          "type": "string"
        },
        {
          "internalType": "string",
          "name": "_instagramHandle",
          "type": "string"
        },
        {
          "internalType": "string",
          "name": "_youtubeHandle",
          "type": "string"
        },
        {
          "internalType": "string",
          "name": "_discordHandle",
          "type": "string"
        }
      ],
      "name": "updateCreatorProfile",
      "outputs": [],
      "stateMutability": "nonpayable",
      "type": "function"
    },
    {
      "inputs": [
        {
          "internalType": "address",
          "name": "",
          "type": "address"
        },
        {
          "internalType": "uint256",
          "name": "",
          "type": "uint256"
        }
      ],
      "name": "userTips",
      "outputs": [
        {
          "internalType": "address",
          "name": "from",
          "type": "address"
        },
        {
          "internalType": "address",
          "name": "to",
          "type": "address"
        },
        {
          "internalType": "uint256",
          "name": "amount",
          "type": "uint256"
        },
        {
          "internalType": "string",
          "name": "message",
          "type": "string"
        },
        {
          "internalType": "uint256",
          "name": "timestamp",
          "type": "uint256"
        }
      ],
      "stateMutability": "view",
      "type": "function"
    }
  ],
  "bytecode": "0x6080806040523461001657612b26908161001c8239f35b600080fdfe608080604052600436101561001357600080fd5b60003560e01c90816311c0036c146123f357508063222c675d146123315780633d3bedc2146121cd57806340e5e2e41461217d57806343d33ecd146120235780634864909d14611e6f5780634a0a0a1b14611ddd5780637dba54d814611dbf57806395df10d9146112f2578063af0b77c6146111a3578063b1ba97601461115f578063b4e9e2fe146110c1578063cf8b208614611087578063dfe6b5d61461105a578063f4bae797146110085763fb4ba0d8146100cf57600080fd5b3461100357610120366003190112611003576004356001600160401b03811161100357610100903690600401612481565b6024356001600160401b0381116110035761011f903690600401612481565b6044356001600160401b0381116110035761013e903690600401612481565b6064356001600160401b0381116110035761015d903690600401612481565b6084356001600160401b0381116110035761017c903690600401612481565b60a4356001600160401b0381116110035761019b903690600401612481565b60c4356001600160401b038111611003576101ba903690600401612481565b9060e4356001600160401b038111611003576101da903690600401612481565b92610104356001600160401b038111611003576101fb903690600401612481565b94885115610fbe5760ff600461022060208c81604051938285809451938492016124de565b81016000815203019020015416610f8057336000526001602052610248604060002054612526565b610f3b576040519661025988612429565b3388528960208901526000604089015260006060890152600160808901528860a089015260c088015260e0870152610100860152610120850152610140840152610160830152610180820152426101a082015260405160208185516102c18183858a016124de565b810160008152030190209060018060a01b038151166bffffffffffffffffffffffff60a01b83541617825560208101518051906001600160401b0382116107dd5781906103116001860154612526565b601f8111610ee8575b50602090601f8311600114610e7657600092610e6b575b50508160011b916000199060031b1c19161760018301555b6040810151600283015560608101516003830155600482016080820151151560ff8019835416911617905560a08101518051906001600160401b0382116107dd5781906103996005860154612526565b601f8111610e18575b50602090601f8311600114610da657600092610d9b575b50508160011b916000199060031b1c19161760058301555b60c08101518051906001600160401b0382116107dd5781906103f66006860154612526565b601f8111610d48575b50602090601f8311600114610cd657600092610ccb575b50508160011b916000199060031b1c19161760068301555b60e08101518051906001600160401b0382116107dd5781906104536007860154612526565b601f8111610c78575b50602090601f8311600114610c0657600092610bfb575b50508160011b916000199060031b1c19161760078301555b6101008101518051906001600160401b0382116107dd5781906104b16008860154612526565b601f8111610ba8575b50602090601f8311600114610b3657600092610b2b575b50508160011b916000199060031b1c19161760088301555b6101208101518051906001600160401b0382116107dd57819061050f6009860154612526565b601f8111610ad8575b50602090601f8311600114610a6657600092610a5b575b50508160011b916000199060031b1c19161760098301555b6101408101518051906001600160401b0382116107dd57819061056d600a860154612526565b601f8111610a08575b50602090601f83116001146109965760009261098b575b50508160011b916000199060031b1c191617600a8301555b6101608101518051906001600160401b0382116107dd5781906105cb600b860154612526565b601f8111610938575b50602090601f83116001146108c6576000926108bb575b50508160011b916000199060031b1c191617600b8301555b6101808101518051906001600160401b0382116107dd57610627600c850154612526565b601f8111610874575b50602090601f83116001146107fe579180600d94926101a0946000926107f3575b50508160011b916000199060031b1c191617600c8501555b01519101553360005260016020526040600020918051926001600160401b0384116107dd576106988154612526565b601f8111610795575b50602093601f811160011461072d57806106e59495600091610722575b508160011b916000199060031b1c19161790555b6106dd600454612760565b600455612785565b7f48ce81e68533b1d648970dddd9b2271fa7491372a6189e20db8238fdf5d62a1f604051602081528061071d33956020830190612501565b0390a3005b9050830151386106be565b601f1981168260005260206000209060005b81811061077d5750906106e59596836001949310610764575b5050811b0190556106d2565b85015160001960f88460031b161c191690553880610758565b8588015183556020978801976001909301920161073f565b816000526020600020601f860160051c810191602087106107d3575b601f0160051c01905b8181106107c757506106a1565b600081556001016107ba565b90915081906107b1565b634e487b7160e01b600052604160045260246000fd5b015190503880610651565b90600c850160005260206000209160005b601f198516811061085c575092600d94926001926101a09583601f19811610610843575b505050811b01600c850155610669565b015160001960f88460031b161c19169055388080610833565b9192602060018192868501518155019401920161080f565b600c85016000526020600020601f840160051c8101602085106108b4575b601f830160051c820181106108a8575050610630565b60008155600101610892565b5080610892565b0151905038806105eb565b9250600b85016000526020600020906000935b601f198416851061091d576001945083601f19811610610904575b505050811b01600b830155610603565b015160001960f88460031b161c191690553880806108f4565b818101518355602094850194600190930192909101906108d9565b909150600b85016000526020600020601f840160051c810160208510610984575b90849392915b601f830160051c820181106109755750506105d4565b6000815585945060010161095f565b5080610959565b01519050388061058d565b9250600a85016000526020600020906000935b601f19841685106109ed576001945083601f198116106109d4575b505050811b01600a8301556105a5565b015160001960f88460031b161c191690553880806109c4565b818101518355602094850194600190930192909101906109a9565b909150600a85016000526020600020601f840160051c810160208510610a54575b90849392915b601f830160051c82018110610a45575050610576565b60008155859450600101610a2f565b5080610a29565b01519050388061052f565b9250600985016000526020600020906000935b601f1984168510610abd576001945083601f19811610610aa4575b505050811b016009830155610547565b015160001960f88460031b161c19169055388080610a94565b81810151835560209485019460019093019290910190610a79565b909150600985016000526020600020601f840160051c810160208510610b24575b90849392915b601f830160051c82018110610b15575050610518565b60008155859450600101610aff565b5080610af9565b0151905038806104d1565b9250600885016000526020600020906000935b601f1984168510610b8d576001945083601f19811610610b74575b505050811b0160088301556104e9565b015160001960f88460031b161c19169055388080610b64565b81810151835560209485019460019093019290910190610b49565b909150600885016000526020600020601f840160051c810160208510610bf4575b90849392915b601f830160051c82018110610be55750506104ba565b60008155859450600101610bcf565b5080610bc9565b015190503880610473565b9250600785016000526020600020906000935b601f1984168510610c5d576001945083601f19811610610c44575b505050811b01600783015561048b565b015160001960f88460031b161c19169055388080610c34565b81810151835560209485019460019093019290910190610c19565b909150600785016000526020600020601f840160051c810160208510610cc4575b90849392915b601f830160051c82018110610cb557505061045c565b60008155859450600101610c9f565b5080610c99565b015190503880610416565b9250600685016000526020600020906000935b601f1984168510610d2d576001945083601f19811610610d14575b505050811b01600683015561042e565b015160001960f88460031b161c19169055388080610d04565b81810151835560209485019460019093019290910190610ce9565b909150600685016000526020600020601f840160051c810160208510610d94575b90849392915b601f830160051c82018110610d855750506103ff565b60008155859450600101610d6f565b5080610d69565b0151905038806103b9565b9250600585016000526020600020906000935b601f1984168510610dfd576001945083601f19811610610de4575b505050811b0160058301556103d1565b015160001960f88460031b161c19169055388080610dd4565b81810151835560209485019460019093019290910190610db9565b909150600585016000526020600020601f840160051c810160208510610e64575b90849392915b601f830160051c82018110610e555750506103a2565b60008155859450600101610e3f565b5080610e39565b015190503880610331565b9250600185016000526020600020906000935b601f1984168510610ecd576001945083601f19811610610eb4575b505050811b016001830155610349565b015160001960f88460031b161c19169055388080610ea4565b81810151835560209485019460019093019290910190610e89565b909150600185016000526020600020601f840160051c810160208510610f34575b90849392915b601f830160051c82018110610f2557505061031a565b60008155859450600101610f0f565b5080610f09565b60405162461bcd60e51b815260206004820152601a60248201527f4164647265737320616c726561647920726567697374657265640000000000006044820152606490fd5b60405162461bcd60e51b8152602060048201526016602482015275115394c8185b1c9958591e481c9959da5cdd195c995960521b6044820152606490fd5b60405162461bcd60e51b815260206004820152601860248201527f454e53206e616d652063616e6e6f7420626520656d70747900000000000000006044820152606490fd5b600080fd5b34611003576020366003190112611003576001600160a01b036110296124c8565b1660005260016020526110566110426040600020612560565b604051918291602083526020830190612501565b0390f35b34611003576000366003190112611003576060600354600454479060405192835260208301526040820152f35b34611003576020366003190112611003576001600160a01b036110a86124c8565b1660005260026020526020604060002054604051908152f35b34611003576040366003190112611003576110da6124c8565b6001600160a01b039081166000908152600260205260409020805460243590811015611003576111099161272e565b5090808254169060018301541691611155600282015491600461112e60038301612560565b9101549260405195869586526020860152604085015260a0606085015260a0840190612501565b9060808301520390f35b34611003576020366003190112611003576001600160a01b036111806124c8565b1660005260016020526020611199604060002054612526565b1515604051908152f35b34611003576020366003190112611003576004356001600160401b038111611003576111f760206111db611056933690600401612481565b6111e3612a89565b5081604051938285809451938492016124de565b81016000815203019020600d6040519161121083612429565b80546001600160a01b0316835261122960018201612560565b6020840152600281015460408401526003810154606084015260ff6004820154161515608084015261125d60058201612560565b60a084015261126e60068201612560565b60c084015261127f60078201612560565b60e084015261129060088201612560565b6101008401526112a260098201612560565b6101208401526112b4600a8201612560565b6101408401526112c6600b8201612560565b6101608401526112d8600c8201612560565b61018084015201546101a082015260405191829182612606565b3461100357610100366003190112611003576004356001600160401b03811161100357611323903690600401612481565b6024356001600160401b03811161100357611342903690600401612481565b906044356001600160401b03811161100357611362903690600401612481565b6064356001600160401b03811161100357611381903690600401612481565b926084356001600160401b038111611003576113a1903690600401612481565b60a4356001600160401b038111611003576113c0903690600401612481565b60c4356001600160401b038111611003576113df903690600401612481565b9160e4356001600160401b038111611003576113ff903690600401612481565b963360005260016020526114166040600020612560565b95611423875115156127a5565b6040516020818161143a8b838151938492016124de565b810160008152030190209588516001600160401b0381116107dd576114626005890154612526565b601f8111611d78575b50806020601f8211600114611d0a57600091611cff575b508160011b916000199060031b1c19161760058801555b8051906001600160401b0382116107dd5781906114b960068a0154612526565b601f8111611cac575b50602090601f8311600114611c3a57600092611c2f575b50508160011b916000199060031b1c19161760068701555b8051906001600160401b0382116107dd5781906115116007890154612526565b601f8111611bdc575b50602090601f8311600114611b6a57600092611b5f575b50508160011b916000199060031b1c19161760078601555b8051906001600160401b0382116107dd5781906115696008880154612526565b601f8111611b0c575b50602090601f8311600114611a9a57600092611a8f575b50508160011b916000199060031b1c19161760088501555b8051906001600160401b0382116107dd5781906115c16009870154612526565b601f8111611a3c575b50602090601f83116001146119ca576000926119bf575b50508160011b916000199060031b1c19161760098401555b8051906001600160401b0382116107dd578190611619600a860154612526565b601f811161196c575b50602090601f83116001146118fa576000926118ef575b50508160011b916000199060031b1c191617600a8301555b8051906001600160401b0382116107dd5761166f600b840154612526565b601f81116118a8575b50602090601f831160011461183757600c9392916000918361182c575b50508160011b916000199060031b1c191617600b8201555b0183516001600160401b0381116107dd576116c88254612526565b601f81116117e4575b506020601f8211600114611753579181611743949261172e947f3a4143d79a744cb3eedb8d6ddacee814bc5ab7dc3519b66e9ab6efa85e612c7b9798600092611748575b50508160011b916000199060031b1c1916179055612785565b92604051918291602083526020830190612501565b0390a2005b015190508880611715565b601f198216958360005260206000209660005b8181106117cc5750927f3a4143d79a744cb3eedb8d6ddacee814bc5ab7dc3519b66e9ab6efa85e612c7b969761172e9593600193836117439997106117b3575b505050811b019055612785565b015160001960f88460031b161c191690558880806117a6565b83830151895560019098019760209384019301611766565b826000526020600020601f830160051c81019160208410611822575b601f0160051c01905b81811061181657506116d1565b60008155600101611809565b9091508190611800565b015190508780611695565b90601f19831691600b850160005260206000209260005b8181106118905750916001939185600c97969410611877575b505050811b01600b8201556116ad565b015160001960f88460031b161c19169055878080611867565b9293602060018192878601518155019501930161184e565b600b84016000526020600020601f840160051c8101602085106118e8575b601f830160051c820181106118dc575050611678565b600081556001016118c6565b50806118c6565b015190508780611639565b9250600a85016000526020600020906000935b601f1984168510611951576001945083601f19811610611938575b505050811b01600a830155611651565b015160001960f88460031b161c19169055878080611928565b8181015183556020948501946001909301929091019061190d565b909150600a85016000526020600020601f840160051c8101602085106119b8575b90849392915b601f830160051c820181106119a9575050611622565b60008155859450600101611993565b508061198d565b0151905088806115e1565b9250600986016000526020600020906000935b601f1984168510611a21576001945083601f19811610611a08575b505050811b0160098401556115f9565b015160001960f88460031b161c191690558880806119f8565b818101518355602094850194600190930192909101906119dd565b909150600986016000526020600020601f840160051c810160208510611a88575b90849392915b601f830160051c82018110611a795750506115ca565b60008155859450600101611a63565b5080611a5d565b015190508980611589565b9250600887016000526020600020906000935b601f1984168510611af1576001945083601f19811610611ad8575b505050811b0160088501556115a1565b015160001960f88460031b161c19169055898080611ac8565b81810151835560209485019460019093019290910190611aad565b909150600887016000526020600020601f840160051c810160208510611b58575b90849392915b601f830160051c82018110611b49575050611572565b60008155859450600101611b33565b5080611b2d565b015190508a80611531565b9250600788016000526020600020906000935b601f1984168510611bc1576001945083601f19811610611ba8575b505050811b016007860155611549565b015160001960f88460031b161c191690558a8080611b98565b81810151835560209485019460019093019290910190611b7d565b909150600788016000526020600020601f840160051c810160208510611c28575b90849392915b601f830160051c82018110611c1957505061151a565b60008155859450600101611c03565b5080611bfd565b015190508b806114d9565b9250600689016000526020600020906000935b601f1984168510611c91576001945083601f19811610611c78575b505050811b0160068701556114f1565b015160001960f88460031b161c191690558b8080611c68565b81810151835560209485019460019093019290910190611c4d565b909150600689016000526020600020601f840160051c810160208510611cf8575b90849392915b601f830160051c82018110611ce95750506114c2565b60008155859450600101611cd3565b5080611ccd565b90508a01518c611482565b91506005890160005260206000206000925b8c601f1984168510611d6157506001935082601f19811610611d48575b5050811b016005880155611499565b8c015160001960f88460031b161c191690558c80611d39565b810151825560209384019360019092019101611d1c565b600589016000526020600020601f830160051c810160208410611db8575b601f830160051c82018110611dac57505061146b565b60008155600101611d96565b5080611d96565b34611003576000366003190112611003576020600354604051908152f35b3461100357602036600319011261100357611056611df96124c8565b611e01612a89565b5060018060a01b038091166000526001602052600d611e476020611e286040600020612560565b611e34815115156127a5565b81604051938285809451938492016124de565b8101600081520301902060405192611e5e84612429565b815416835261122960018201612560565b34611003576020366003190112611003576004356001600160401b03811161100357611e9f903690600401612481565b6040518181809351602081930191611eb6926124de565b600090820190815203602001902080546001600160a01b0316611edb60018301612560565b90600283015492600381015491600482015460ff169060058301611efe90612560565b611f0a60068501612560565b611f1660078601612560565b611f2260088701612560565b91611f2f60098801612560565b93611f3c600a8901612560565b95611f49600b8a01612560565b97611f56600c8b01612560565b99600d01549a6040519d8e9d8e9485526101c08060208701528501611f7a91612501565b936040015260608d0152151560808c01528a810360a08c0152611f9c91612501565b89810360c08b0152611fad91612501565b88810360e08a0152611fbe91612501565b878103610100890152611fd091612501565b868103610120880152611fe291612501565b858103610140870152611ff491612501565b84810361016086015261200691612501565b83810361018085015261201891612501565b906101a08301520390f35b6040366003190112611003576120376124c8565b6024356001600160401b03811161100357612056903690600401612481565b6120613415156127ea565b60018060a01b0380921660005260016020526121456120836040600020612560565b92612090845115156127a5565b60405160208186516120a58183858b016124de565b810160008152030190206120cc600080808034878754165af16120c6612840565b50612870565b600281016120db3482546128ae565b9055600381016120eb8154612760565b90556120f8600354612760565b60035533600052600260205261213d604060002083835416906040519161211e8361240e565b33835260208301523460408301528660608301524260808301526128bb565b541692612785565b7fcab1fe39da9b4b9e1d51732f62454ee2029fbd7230a25858c9db38117870151b60405180612178339542903484612a67565b0390a4005b34611003576020366003190112611003576004356001600160401b0381116110035760ff60046121b66020611e34819536908501612481565b810160008152030190200154166040519015158152f35b3461100357602080600319360112611003576001600160a01b03806121f06124c8565b166000526002825260406000208054926001600160401b0384116107dd5791926040516005916122248582851b0183612445565b8082528482018094600052856000206000915b8383106122d35750505050604051938085019181865251809252604082818701941b86010193926000965b83881061226f5786860387f35b90919293948380600192603f198a820301865288519085825116815285838301511683820152604082015160408201526122b86060808401519060a08091850152830190612501565b91608080910151910152970193019701969093929193612262565b858860019260409b9a97989b516122e98161240e565b8b86541681528b8587015416838201526002860154604082015261230f60038701612560565b6060820152600486015460808201528152019201920191909794939697612237565b6040366003190112611003576001600160401b036004358181116110035761235d903690600401612481565b9060243590811161100357612376903690600401612481565b6121456123ca60206040516123ae60ff60048851938581818c019661239c81838a6124de565b810160008152030190200154166127a5565b6123b93415156127ea565b6040518093819288519283916124de565b8101600081520301902060018060a01b03906120cc600080808034878754165af16120c6612840565b34611003576000366003190112611003576020906004548152f35b60a081019081106001600160401b038211176107dd57604052565b6101c081019081106001600160401b038211176107dd57604052565b90601f801991011681019081106001600160401b038211176107dd57604052565b6001600160401b0381116107dd57601f01601f191660200190565b81601f820112156110035780359061249882612466565b926124a66040519485612445565b8284526020838301011161100357816000926020809301838601378301015290565b600435906001600160a01b038216820361100357565b60005b8381106124f15750506000910152565b81810151838201526020016124e1565b9060209161251a815180928185528580860191016124de565b601f01601f1916010190565b90600182811c92168015612556575b602083101461254057565b634e487b7160e01b600052602260045260246000fd5b91607f1691612535565b906040519182600082549261257484612526565b9081845260019485811690816000146125e357506001146125a0575b505061259e92500383612445565b565b9093915060005260209081600020936000915b8183106125cb57505061259e93508201013880612590565b855488840185015294850194879450918301916125b3565b91505061259e94506020925060ff191682840152151560051b8201013880612590565b602080825282516001600160a01b0316828201528201516101c06040830181905290612637906101e0840190612501565b60408401516060840152606084015160808401526080840151151560a084015261272561268d61267960a087015193601f1994858883030160c0890152612501565b60c0870151848783030160e0880152612501565b6127106126f96126e26126cb6126b460e08b01519561010096898c830301888d0152612501565b948a01519461012095888b830301878c0152612501565b938901519361014094878a830301868b0152612501565b9288015192610160938689830301858a0152612501565b918701519161018092858883030184890152612501565b908601516101a0938683030184870152612501565b93015191015290565b805482101561274a576000526005602060002091020190600090565b634e487b7160e01b600052603260045260246000fd5b600019811461276f5760010190565b634e487b7160e01b600052601160045260246000fd5b61279d906020604051928284809451938492016124de565b810103902090565b156127ac57565b60405162461bcd60e51b815260206004820152601660248201527510dc99585d1bdc881b9bdd081c9959da5cdd195c995960521b6044820152606490fd5b156127f157565b60405162461bcd60e51b815260206004820152602160248201527f54697020616d6f756e74206d7573742062652067726561746572207468616e206044820152600360fc1b6064820152608490fd5b3d1561286b573d9061285182612466565b9161285f6040519384612445565b82523d6000602084013e565b606090565b1561287757565b60405162461bcd60e51b815260206004820152600f60248201526e151c985b9cd9995c8819985a5b1959608a1b6044820152606490fd5b9190820180921161276f57565b8054680100000000000000008110156107dd576128df90600192838201815561272e565b929092612a5157805183546001600160a01b03199081166001600160a01b03928316178555602080840151858701805490931693169290921790556040820151600285015560608201518051909360038601926001600160401b0383116107dd5761294a8454612526565b601f8111612a08575b5080601f8411600114612999575091808092608096959460049860009461298e575b50501b916000199060031b1c19161790555b0151910155565b015192503880612975565b91939495601f1984168660005283600020936000905b8282106129f157505091600497959391856080989694106129d8575b505050811b019055612987565b015160001960f88460031b161c191690553880806129cb565b8088869782949787015181550196019401906129af565b6000858152828120601f860160051c810192848710612a47575b601f0160051c019184905b838110612a3c57505050612953565b828155018490612a2d565b9092508290612a22565b634e487b7160e01b600052600060045260246000fd5b939291612a84906040928652606060208701526060860190612501565b930152565b60405190612a9682612429565b60006101a083828152606080602083015283604083015283818301528360808301528060a08301528060c08301528060e083015280610100830152806101208301528061014083015280610160830152610180820152015256fea2646970667358221220fe3434823fdee5e357ea42138b308421611f4c9967e9c4df7a43c8e171a0cb9664736f6c63430008130033",
  "linkReferences": {},
  "deployedLinkReferences": {},
  "immutableReferences": {},
  "inputSourceName": "project/contracts/TipUp.sol",
  "buildInfoId": "solc-0_8_19-5843fe03743927a590bf3362e705ff163c92b9c1"
}